:040000007DEF00F0A0
:100008004882FACF28F0FBCF29F0E9CF2AF0EACFCF
:100018002BF0E1CF2CF0E2CF2DF0D9CF2EF0DACFB4
:100028002FF0F3CF30F0F4CF31F0F6CF32F0F7CF36
:1000380033F0F8CF34F0F5CF35F048C036F049C08A
:1000480037F04AC038F04BC039F0F2AC2CD0A0B62B
:10005800A1A603D08FEC0CF026D09DB69EA603D0A7
:100068008FEC07F020D09DB89EA809D001D81BD0EE
:100078000500FA6E0001B451FD6EB5510BD09DBA62
:100088009EAA0CD001D80FD00500FA6E0001B2511B
:10009800FD6EB351FE6EFF6AFA5012009DB09EA02D
:1000A80002D0C3EC0BF039C04BF038C04AF037C06F
:1000B80049F036C048F035C0F5FF34C0F8FF33C00A
:1000C800F7FF32C0F6FF31C0F4FF30C0F3FF2FC096
:1000D800DAFF2EC0D9FF2DC0E2FF2CC0E1FF2BC0F4
:1000E800EAFF2AC0E9FF29C0FBFF28C0FAFF4892AF
:0600F8001100B8EF0AF050
:100F0000003031323334353637383900576F726B31
:0D0F10006564210043757272656E74000007
:100F1E009E96C6AE1FD1C69E000E1B6E20EE03F02F
:100F2E000A50D9260B50DA22DECF26F0DDCF27F07D
:100F3E0026C0F6FF27C0F7FF000EF86E0E0EF76400
:100F4E0004D0010EF56E0C0006D0F6CFE9FFF7CFF8
:100F5E00EAFF010EEF6E000E0A6E000E0B6E12000F
:100F6E0005B2120003C00AF004C00BF003C0D9FF93
:100F7E0004C0DAFFDF501A6E20EE01F00350D926BE
:100F8E000450DA22DECF0CF0DDCF0DF0050E032675
:100F9E00000E0422210E031808E1000E0418D8A436
:100FAE0004D01C0E036E000E046E05900150031843
:100FBE0004E102500418D8B40582C580020E1B6EDF
:100FCE001200C582020E1B6E1200C5AC05D0072A98
:100FDE00040E64EC0AF01200D8902230276E2130F5
:100FEE00266E2650C96E21A003D00B0E1B6E12006A
:100FFE00030E1B6E1200C5AC05D0072A040E64EC5E
:10100E000AF01200C58221C026F022C027F027C0A8
:10101E0026F0276A060E2616000E2716F00E26104C
:10102E00216E2750226E2180010E186E020E1B6E4D
:10103E0012001804D8B41AD00CC0D9FF0DC0DAFFB4
:10104E00DECF21F0DDCF22F020EE03F00C50D926BA
:10105E000D50DA22DECF08F0DDCF09F020EE02F0DF
:10106E000C50D9260D50DA22DF50196E21C0C9FF5F
:10107E0021A003D0050E1B6E1200030E1B6E120074
:10108E00C5AC06D0072AC59C050E64EC0AF012000A
:10109E0019061928D8A40ED0050E0C26000E0D2206
:1010AE001A2E04D0000E64EC0AF01200C582020E55
:1010BE001B6E120008C0F6FF09C0F7FF000EF86E97
:1010CE000E0EF76403D00800F55005D0F6CFE9FFF9
:1010DE00F7CFEAFFEF50C96E084A092A1200C5ACD5
:1010EE0006D0072A040E64EC0AF0C59C1200C586D1
:1010FE00080E1B6E1200080E1B6EC586120008C06D
:10110E00F6FF09C0F7FF000EF86E0E0EF76404D05E
:10111E00C9CFF5FF0C0006D0F6CFE9FFF7CFEAFFF7
:10112E00C9CFEFFF084A092A010E195ED8B404D0C0
:10113E00C59A060E1B6E03D0C58A4FEC0CF0C588FF
:10114E001200000E64EC0AF01200072A060E64EC80
:10115E000AF012001B50000AD8B402D7010AD8B404
:10116E0030D7030AD8B465D7010AD8B489D7070A8D
:10117E00D8B4E7D7010AD8B4B2D7030AD8B4BBD7CC
:10118E00010AD8B4DED70F0AD8B4B9D7020AD8B438
:10119E001CD7010AD8B42FD7D8D707EC0CF0F28E93
:1011AE00F28C000E0001A76F000EA86F000EAF6F3D
:1011BE00130EAF6501D00CD0AF51010D600EF324AC
:1011CE00D96E000EF420DA6E000EDF6EAF2BF0D764
:1011DE00080EA96F140EAB6F0F0EAC6F010EAD6F34
:1011EE000F0EAE6F020EAA6FADC0F6FFAEC0F7FFC8
:1011FE00F86A0800F5504F0AD8A415D0010E000168
:10120E00AD25A56F000EAE21A66FA5C0F6FFA6C038
:10121E00F7FFF86A0800F5504B0AD8A404D00C0E5C
:10122E00AB6F0F0EAC6FABC0A0F0ACC0A1F0000E58
:10123E000001A36F080EA26FDAEC09F0ADC0A0F0AA
:10124E00AEC0A1F0000E0001A36F080EA26F1FEC3E
:10125E000AF0CAD7800E6F6E6E50E00B800AD8A4CB
:10126E00FBD7000E726E200E706E000E0E01FA6F1E
:10127E00000EFB6F000EF86F000EF96F000EFE6F82
:10128E00000EFF6F000EFC6F000EFD6F000EE26F82
:10129E00000EE36F000EE06F000EE16F000EE66FC2
:1012AE00000EE76F000EE46F000EE56F000EEA6FA2
:1012BE00000EEB6F000EE86F000EE96F000EEE6F82
:1012CE00000EEF6F000EEC6F000EED6F000EF26F62
:1012DE00000EF36F000EF06F000EF16F000EF66F42
:1012EE00000EF76F000EF46F000EF56F000E436FD9
:1012FE00980E446F010E456F000E6F6E6ECF3AF072
:10130E00E00E3A16D8B41200F9D7416E05B039D0B6
:10131E003EC0D9FF3FC0DAFF020EDF6E20EE01F0B5
:10132E000150D9260250DA223CC0DEFF3DC0DDFF5F
:10133E0001C0D9FF02C0DAFF41C0DFFF20EE03F08B
:10134E000150D9260250DA223EC0DEFF3FC0DDFF3B
:10135E00050E0126000E0222210E011808E1000ED4
:10136E000218D8A404D01C0E016E000E026E059257
:10137E00015003180CE102500418D8A408D00580BF
:10138E0006D03EC0D9FF3FC0DAFF010EDF6E3EC071
:10139E00D9FF3FC0DAFF020EDE18D8A4120031ECDE
:1013AE000CF09E861200020E0001A46F8AA802D0D5
:1013BE00010E01D0000EFF0A436E433A8A504318C5
:1013CE00EF0B43188A6EA451D8B412008AA802D02B
:1013DE00010E01D0000EFF0A436E433A8A504318A5
:1013EE00EF0B43188A6E4E0E436EEB0EE82EFED7B1
:1013FE00432EFCD700F0A0C099F0A1C09AF0A0C077
:10140E003AF0A1C03BF070EC0BF03A5000019B6F2C
:10141E00000E9D6F080E9C6FA40E9E6F000E9F6FA8
:10142E0004EC0BF0020E0001A419D8A41200CBD7C5
:10143E00020E0001A46F8AA802D0010E01D0000E88
:10144E00FF0A436E433A8A504318EF0B43188A6ED5
:10145E00A451D8B412008AA802D0010E01D0000EF9
:10146E00FF0A436E433A8A504318EF0B43188A6EB5
:10147E004E0E436EEB0EE82EFED7432EFCD700F039
:10148E00A0C099F0A1C09AF0A0C03AF0A1C03BF064
:10149E0070EC0BF03A5000019B6FA2C09CF0A3C001
:1014AE009DF0A40E9E6F000E9F6F29EC0BF0020EA6
:1014BE000001A419D8A41200CBD7256EC58420EE46
:1014CE0003F00A50D9260B50DA22DE50DE10D8B4C3
:1014DE001DD020EE03F00A50D9260B50DA22DECFB3
:1014EE0023F0DDCF24F023C0F6FF24C0F7FF000E5B
:1014FE00F86E0E0EF76404D025C0F5FF0C0006D072
:10150E00F6CFE9FFF7CFEAFF25C0EFFF000E1B6E07
:10151E0012003FC041F040C042F0D89041364236F2
:10152E003AC0D9FF3BC0DAFF41C0DEFF42C0DDFF4B
:10153E003AC0D9FF3BC0DAFF000EDB8020EE02F08E
:10154E003A50D9263B50DA223EC0DFFF20EE03F0A0
:10155E003A50D9263B50DA223CC0DEFF3DC0DDFFBB
:10156E001200220EF66E190EF76E000EF86E0900BE
:10157E00F5CFB6F00900F5CFB7F0260EF66E190EC0
:10158E00F76E000EF86E0900F5CF47F000EE60F032
:10159E00390EEE6AE806FDE100EE01F0220EEE6A6B
:1015AE00E806FDE1489048920001D4EF08F09D9ABC
:1015BE00E20E3A6E170E3B6E88EC0CF09D98B40E50
:1015CE003A6E170E3B6E83EC0CF0080EA76E900E63
:1015DE00AB6E240EAC6E670EAF6E000E7D6E000EFF
:1015EE00176E000E166E080E466E000E156E000E6D
:1015FE00146E000E136E9D8A120005B01CD0940E50
:10160E003A6E000E3B6E99C03CF09AC03DF09BC006
:10161E003EF09CC03FF09DC040F04EEC0BF0940E9F
:10162E003C6E000E3D6E9EC03EF09FC03FF0010E20
:10163E008CEC09F012009EC0D9FF9FC0DAFF010E9C
:10164E00DF6E120005B01CD08F0E3A6E000E3B6E90
:10165E0099C03CF09AC03DF09BC03EF09CC03FF05C
:10166E009DC040F090EC0AF08F0E3C6E000E3D6E69
:10167E009EC03EF09FC03FF0010E8CEC09F01200B0
:10168E009EC0D9FF9FC0DAFF010EDF6E12003FC071
:10169E0041F040C042F0D890413642363AC0D9FFB0
:1016AE003BC0DAFF41C0DEFF42C0DDFF20EE02F09C
:1016BE003A50D9263B50DA223EC0DFFF20EE03F02F
:1016CE003A50D9263B50DA223CC0DEFF3DC0DDFF4A
:1016DE0012003AC03EF03BC03FF002D03E4A3F2AD5
:1016EE003EC0F6FF3FC0F7FFF86A0800F55000094C
:1016FE00D8A4F4D73AC03CF03BC03DF03C1E3D1E92
:10170E003C4A3D2A3E503C243A6E3F503D203B6EB3
:10171E001200000EAA6E800ECF6E000ECE6ECE5050
:10172E00CFCF3CF03D6A3CC03DF03C6A3C10446E6D
:10173E003D50456E9E909D80240E3A6E190E3B6E66
:10174E007EEC0CF0010ECD6E12001C0E036E000E20
:10175E00046E1C0E016E000E026E05820590000EC8
:10176E00076E800EC76E280EC66E130EC86E9E963E
:10177E00A1969D86A08612009E9044C023F045C07F
:10178E0024F041EC0CF00001B051B111D8B41200AC
:10179E0001D812000500FA6EB051FD6EB151FE6E09
:1017AE00FF6AFA501200080E466012D01650010D54
:1017BE00850EF324D96E000EF420DA6EDF50AD6E76
:1017CE00162A070E166402D0000E166E462A120056
:1017DE009D981200ABA202D0AB98AB881550010DAC
:1017EE007D0EF324D96E000EF420DA6EAECFDFFF3D
:1017FE00152A070E156402D0000E156E132A12005C
:10180E008DEC0CF01CEC0CF06DEC0CF0ACEC0BF069
:10181E0064EC0CF05BEC0CF076EC0CF090EC0BF056
:10182E00DEEC0AF031EC09F01200000E896E000EAB
:10183E008A6E040E8B6EEF0E926ECA0E936EBB0EF8
:10184E00946E1F0E0F015D6F060E5C6F000E5B6FC8
:10185E00F18E1200000E3B6E000E3A6E07D03A4A21
:10186E003B2A230E3A183B10D8B412001B50D8B4A2
:10187E001200F5D7CDA407D0CD902450CF6E23C043
:10188E00CEFFCD8012002450CF6E23C0CEFF1200AB
:10189E00050E0C26000E0D221A2E03D0040E1B6E02
:1018AE001200010E1B6E12003C0E0F01476F630EED
:1018BE00486F000E496F999812001C0E0F01506F61
:1018CE003E0E516F000E526F99921200520ED36E51
:1018DE00000ED26E000E9B6E000E9A6E12007C0EE3
:1018EE00CB6E000ECC6E9E92060ECA6E12003AC0E1
:1018FE00B0F03BC0B1F012003AC0B4F03BC0B5F04E
:10190E0012003AC0B2F03BC0B3F01200D09E1200EB
:09191E00A196120005001200015F
:020000040020DA
:08000000FFFFFFFFFFFFFFFF00
:020000040030CA
:0E00000015087F7CFF8991FF0FC00FE00F40B5
:00000001FF
