:040000005FEF00F0BE
:100008004282FACF01F0FBCF02F0E9CF03F0EACF4A
:1000180004F0E1CF05F0E2CF06F0D9CF07F0DACF50
:1000280008F0F3CF09F0F4CF0AF0F6CF0BF0F7CFD2
:100038000CF0F8CF0DF0F5CF0EF042C00FF043C032
:1000480010F044C011F045C012F0F2BC9DAA0DD0CA
:100058009EAA0BD001D809D00500FA6E3B50FD6E60
:100068003C50FE6EFF6AFA50120012C045F011C0F3
:1000780044F010C043F00FC042F00EC0F5FF0DC0B1
:10008800F8FF0CC0F7FF0BC0F6FF0AC0F4FF09C069
:10009800F3FF08C0DAFF07C0D9FF06C0E2FF05C0BA
:1000A800E1FF04C0EAFF03C0E9FF02C0FBFF01C093
:0A00B800FAFF42921100A0EF08F0D9
:100F000000555341525420496E697469616C697A85
:100F10006174696F6E20436F6D706C6574650A0053
:010F200000D0
:100F2200000E0001606F000E616F000E626F000E16
:100F3200636F690E646F000E666F000E656F100EB0
:100F42006A6FE00E696F000E6C6F000E6B6F690EB8
:100F5200676F000E686FABEC08F0010E146E0F0E97
:100F6200156E4DEC08F0000E926E67C013F068C06B
:100F720014F0000E166E200E156EE6EC07F013C08C
:100F82006BF014C06CF0010E896E030E256E8A0E92
:100F9200246E560EE82EFED7242EFCD7252EFAD725
:100FA200000E896E030E256E8A0E246E560EE82EF2
:100FB200FED7242EFCD7252EFAD700016B51BFECA9
:100FC20008F00001654B662BDED7000E1E6E000E88
:100FD2001D6E33D013C0D9FF14C0DAFFDF50176E75
:100FE20017501D1A134A142A000E1C6E000E1B6E97
:100FF2001C501EE119D01DB004D0000E1A6E000E56
:1010020003D0A00E1A6E010E196ED8901E30186E03
:101012001D30176E195017181D6E1A5018181E6EB3
:101022001B4A1C2A1C5004E1080E1B5CD8A0E3D703
:101032001DC013F01EC014F012001506D8A016062B
:101042001528C8E11628D8B41200C4D79D9A9D98D5
:10105200000E136E000E146EC6EC08F0C80E136E6E
:10106200100E146ECBEC08F0080EA76E900EAB6E4D
:10107200240EAC6ECF0EAF6E000E7D6E000E3A6E79
:10108200000E396E080E416E000E386E000E376E7D
:10109200000E366E9D8A12000BD014C0F6FF15C0EA
:1010A200F7FFF86A0800F550BFEC08F0144A152A59
:1010B20014C0F6FF15C0F7FFF86A0800F5500009E2
:1010C200D8B41200EAD7ABA202D0AB98AB883850A2
:1010D200010D260EF324D96E000EF420DA6EAECF87
:1010E200DFFF382A070E386402D0000E386E362A27
:1010F2001200000E896E000E8A6E000E8B6EEF0ECD
:10110200926E9368BF0E946E1F0E0F015D6F070EF5
:101112005C6F000E5B6FF18E1200D768EF0ED66E19
:10112200D650D7CF13F0146A13C014F0136A1310F9
:101132003F6E1450406EF294950ED56E120000EE82
:1011420026F0150EEE6AE806FDE142904292000199
:1011520091EF07F0D0EC08F07AEC08F0B6EC08F06A
:101162008EEC08F027EC08F01200600ED36E000E31
:10117200D26E000E9B6E000E9A6E1200136E4150DC
:10118200D8B4FDD713C0ADFF120013C03DF014C098
:101192003EF0120013C03BF014C03CF01200D09E8F
:0211A200120039
:020000040020DA
:08000000FFFFFFFFFFFFFFFF00
:020000040030CA
:0E00000015187F7CFF8991FF0FC00FE00F40A5
:00000001FF
