:04000000E9EF0DF027
:090F000000307834380061000073
:100F0A00000E166E000E176E000E186E000E196E89
:100F1A00000E156E0F0120B779D020EE01F01350A4
:100F2A00D9261450DA22DECF01F0DECF02F0DECF6E
:100F3A0003F0DECF04F013C0D9FF14C0DAFFDF508C
:100F4A00056E160E066E000E076E170E086E000E60
:100F5A00096E180E0A6E000E0B6E190E0C6E000E3C
:100F6A000D6EE7EC0BF016C023FF17C024FF18C064
:100F7A0021FF19C022FF20EE05F01350D926145084
:100F8A00DA22DF500F01256F20EE06F01350D92622
:100F9A001450DA22DF50266F20EE07F01350D926BC
:100FAA001450DA22DF50276F20EE08F01350D926AA
:100FBA001450DA22DF50286F20EE09F01350D92698
:100FCA001450DA22DF50296F20EE0AF01350D92686
:100FDA001450DA22DF502A6F20EE0BF01350D92674
:100FEA001450DA22DF502B6F20EE0CF01350D92662
:100FFA001450DA22DF502C6F20EE0DF01350D92650
:10100A001450DA22DF502D6F2087D8D310B779D049
:10101A0020EE01F01350D9261450DA22DECF01F067
:10102A00DECF02F0DECF03F0DECF04F013C0D9FF2B
:10103A0014C0DAFFDF50056E160E066E000E076E3C
:10104A00170E086E000E096E180E0A6E000E0B6E51
:10105A00190E0C6E000E0D6EE7EC0BF016C013FFA6
:10106A0017C014FF18C011FF19C012FF20EE05F0B7
:10107A001350D9261450DA22DF500F01156F20EED3
:10108A0006F01350D9261450DA22DF50166F20EEDC
:10109A0007F01350D9261450DA22DF50176F20EECA
:1010AA0008F01350D9261450DA22DF50186F20EEB8
:1010BA0009F01350D9261450DA22DF50196F20EEA6
:1010CA000AF01350D9261450DA22DF501A6F20EE94
:1010DA000BF01350D9261450DA22DF501B6F20EE82
:1010EA000CF01350D9261450DA22DF501C6F20EE70
:1010FA000DF01350D9261450DA22DF501D6F1087D5
:10110A005DD300B779D020EE01F01350D9261450E0
:10111A00DA22DECF01F0DECF02F0DECF03F0DECF3F
:10112A0004F013C0D9FF14C0DAFFDF50056E160EA3
:10113A00066E000E076E170E086E000E096E180E68
:10114A000A6E000E0B6E190E0C6E000E0D6EE7EC99
:10115A000BF016C003FF17C004FF18C001FF19C027
:10116A0002FF20EE05F01350D9261450DA22DF5080
:10117A000F01056F20EE06F01350D9261450DA221B
:10118A00DF50066F20EE07F01350D9261450DA22EA
:10119A00DF50076F20EE08F01350D9261450DA22D8
:1011AA00DF50086F20EE09F01350D9261450DA22C6
:1011BA00DF50096F20EE0AF01350D9261450DA22B4
:1011CA00DF500A6F20EE0BF01350D9261450DA22A2
:1011DA00DF500B6F20EE0CF01350D9261450DA2290
:1011EA00DF500C6F20EE0DF01350D9261450DA227E
:1011FA00DF500D6F0087E2D20E0180BF79D020EE5A
:10120A0001F01350D9261450DA22DECF01F0DECFD6
:10121A0002F0DECF03F0DECF04F013C0D9FF14C012
:10122A00DAFFDF50056E160E066E000E076E170EF9
:10123A00086E000E096E180E0A6E000E0B6E190E5D
:10124A000C6E000E0D6EE7EC0BF016C083FE17C095
:10125A0084FE18C081FE19C082FE20EE05F01350EC
:10126A00D9261450DA22DF500E01856F20EE06F0DF
:10127A001350D9261450DA22DF50866F20EE07F079
:10128A001350D9261450DA22DF50876F20EE08F067
:10129A001350D9261450DA22DF50886F20EE09F055
:1012AA001350D9261450DA22DF50896F20EE0AF043
:1012BA001350D9261450DA22DF508A6F20EE0BF031
:1012CA001350D9261450DA22DF508B6F20EE0CF01F
:1012DA001350D9261450DA22DF508C6F20EE0DF00D
:1012EA001350D9261450DA22DF508D6F808F66D2C0
:1012FA0090BF79D020EE01F01350D9261450DA228B
:10130A00DECF01F0DECF02F0DECF03F0DECF04F055
:10131A0013C0D9FF14C0DAFFDF50056E160E066E31
:10132A00000E076E170E086E000E096E180E0A6E72
:10133A00000E0B6E190E0C6E000E0D6EE7EC0BF024
:10134A0016C093FE17C094FE18C091FE19C092FEF3
:10135A0020EE05F01350D9261450DA22DF500E0180
:10136A00956F20EE06F01350D9261450DA22DF507A
:10137A00966F20EE07F01350D9261450DA22DF5068
:10138A00976F20EE08F01350D9261450DA22DF5056
:10139A00986F20EE09F01350D9261450DA22DF5044
:1013AA00996F20EE0AF01350D9261450DA22DF5032
:1013BA009A6F20EE0BF01350D9261450DA22DF5020
:1013CA009B6F20EE0CF01350D9261450DA22DF500E
:1013DA009C6F20EE0DF01350D9261450DA22DF50FC
:1013EA009D6F908FEBD1A0BF79D020EE01F0135002
:1013FA00D9261450DA22DECF01F0DECF02F0DECF9A
:10140A0003F0DECF04F013C0D9FF14C0DAFFDF50B7
:10141A00056E160E066E000E076E170E086E000E8B
:10142A00096E180E0A6E000E0B6E190E0C6E000E67
:10143A000D6EE7EC0BF016C0A3FE17C0A4FE18C091
:10144A00A1FE19C0A2FE20EE05F01350D9261450B1
:10145A00DA22DF500E01A56F20EE06F01350D926CE
:10146A001450DA22DF50A66F20EE07F01350D92667
:10147A001450DA22DF50A76F20EE08F01350D92655
:10148A001450DA22DF50A86F20EE09F01350D92643
:10149A001450DA22DF50A96F20EE0AF01350D92631
:1014AA001450DA22DF50AA6F20EE0BF01350D9261F
:1014BA001450DA22DF50AB6F20EE0CF01350D9260D
:1014CA001450DA22DF50AC6F20EE0DF01350D926FB
:1014DA001450DA22DF50AD6FA08F70D1B0BF79D02F
:1014EA0020EE01F01350D9261450DA22DECF01F093
:1014FA00DECF02F0DECF03F0DECF04F013C0D9FF57
:10150A0014C0DAFFDF50056E160E066E000E076E67
:10151A00170E086E000E096E180E0A6E000E0B6E7C
:10152A00190E0C6E000E0D6EE7EC0BF016C0B3FE32
:10153A0017C0B4FE18C0B1FE19C0B2FE20EE05F005
:10154A001350D9261450DA22DF500E01B56F20EE5F
:10155A0006F01350D9261450DA22DF50B66F20EE67
:10156A0007F01350D9261450DA22DF50B76F20EE55
:10157A0008F01350D9261450DA22DF50B86F20EE43
:10158A0009F01350D9261450DA22DF50B96F20EE31
:10159A000AF01350D9261450DA22DF50BA6F20EE1F
:1015AA000BF01350D9261450DA22DF50BB6F20EE0D
:1015BA000CF01350D9261450DA22DF50BC6F20EEFB
:1015CA000DF01350D9261450DA22DF50BD6FB08FB8
:1015DA00F5D0C0BF79D020EE01F01350D9261450AF
:1015EA00DA22DECF01F0DECF02F0DECF03F0DECF6B
:1015FA0004F013C0D9FF14C0DAFFDF50056E160ECF
:10160A00066E000E076E170E086E000E096E180E93
:10161A000A6E000E0B6E190E0C6E000E0D6EE7ECC4
:10162A000BF016C0C3FE17C0C4FE18C0C1FE19C015
:10163A00C2FE20EE05F01350D9261450DA22DF50EC
:10164A000E01C56F20EE06F01350D9261450DA2287
:10165A00DF50C66F20EE07F01350D9261450DA2255
:10166A00DF50C76F20EE08F01350D9261450DA2243
:10167A00DF50C86F20EE09F01350D9261450DA2231
:10168A00DF50C96F20EE0AF01350D9261450DA221F
:10169A00DF50CA6F20EE0BF01350D9261450DA220D
:1016AA00DF50CB6F20EE0CF01350D9261450DA22FB
:1016BA00DF50CC6F20EE0DF01350D9261450DA22E9
:1016CA00DF50CD6FC08F7AD0D0BF7AD020EE01F034
:1016DA001350D9261450DA22DECF01F0DECF02F001
:1016EA00DECF03F0DECF04F013C0D9FF14C0DAFF57
:1016FA00DF50056E160E066E000E076E170E086E88
:10170A00000E096E180E0A6E000E0B6E190E0C6E84
:10171A00000E0D6EE7EC0BF016C0D3FE17C0D4FE18
:10172A0018C0D1FE19C0D2FE20EE05F01350D926FA
:10173A001450DA22DF500E01D56F20EE06F0135056
:10174A00D9261450DA22DF50D66F20EE07F0135054
:10175A00D9261450DA22DF50D76F20EE08F0135042
:10176A00D9261450DA22DF50D86F20EE09F0135030
:10177A00D9261450DA22DF50D96F20EE0AF013501E
:10178A00D9261450DA22DF50DA6F20EE0BF013500C
:10179A00D9261450DA22DF50DB6F20EE0CF01350FA
:1017AA00D9261450DA22DF50DC6F20EE0DF01350E8
:1017BA00D9261450DA22DF50DD6FD08F010E156E54
:1017CA0015501200000E126E020E0518D8A481D010
:1017DA0008C0D9FF09C0DAFF01C0DFFF01C00EF05F
:1017EA0002C00FF003C010F004C011F00FC00EF0D9
:1017FA0010C00FF011C010F0116A0EC001F00FC036
:10180A0002F010C003F011C004F006C0D9FF07C0EF
:10181A00DAFF01C0DFFF01C00EF002C00FF003C003
:10182A0010F004C011F00FC00EF010C00FF011C07C
:10183A0010F0116A0EC001F00FC002F010C003F0E0
:10184A0011C004F00150030B126E01C00EF002C069
:10185A000FF003C010F004C011F0030ED8900E363A
:10186A000F3610361136E82EF9D70EC001F00FC028
:10187A0002F010C003F011C004F00150E00B122472
:10188A00126E1250080F126E1250EB0B0CC0D9FFD9
:10189A000DC0DAFFDF6E01C00EF002C00FF003C008
:1018AA0010F004C011F00FC00EF010C00FF011C0FC
:1018BA0010F0116A0EC001F00FC002F010C003F060
:1018CA0011C004F00AC0D9FF0BC0DAFF01C0DFFF64
:1018DA00120006C0D9FF07C0DAFF000EDF6E08C08B
:1018EA00D9FF09C0DAFF000EDF6E01C00EF002C098
:1018FA000FF003C010F004C011F0050ED8900E3698
:10190A000F3610361136E82EF9D70EC001F00FC087
:10191A0002F010C003F011C004F00CC0D9FF0DC0D2
:10192A00DAFF01C0DFFF01C00EF002C00FF003C0F2
:10193A0010F004C011F00FC00EF010C00FF011C06B
:10194A0010F0116A0EC001F00FC002F010C003F0CF
:10195A0011C004F00AC0D9FF0BC0DAFF01C0DFFFD3
:10196A001200800E6F6E6E50E00B800AD8A4FBD76F
:10197A00400E726E000E0E017D6F000EFA6F000EA1
:10198A00FB6F000EF86F000EF96F000EFE6F000E6F
:10199A00FF6F000EFC6F000EFD6F000E466F000E0B
:1019AA00476F000E796F000E7A6F000E7B6F000E84
:1019BA007C6F000E716F000E726F000E736F000E57
:1019CA00746F000E756F000E766F000E776F000E43
:1019DA00786F000EE26F000EE36F000EE06F000EEC
:1019EA00E16F000EE66F000EE76F000EE46F000E67
:1019FA00E56F000EEA6F000EEB6F000EE86F000E47
:101A0A00E96F000EEE6F000EEF6F000EEC6F000E26
:101A1A00ED6F000EF26F000EF36F000EF06F000E06
:101A2A00F16F000EF66F000EF76F000EF46F000EE6
:101A3A00F56F000E4A6F000E4B6F000E486F000ED6
:101A4A00496F000E4E6F000E4F6F000E4C6F000E66
:101A5A004D6F000E526F000E536F000E506F000E46
:101A6A00516F000E566F000E576F000E546F000E26
:101A7A00556F000E5A6F000E5B6F000E586F000E06
:101A8A00596F000E5E6F000E5F6F000E5C6F000EE6
:101A9A005D6F000E626F000E636F000E606F000EC6
:101AAA00616F000E666F000E676F000E646F000EA6
:101ABA00656F000E6A6F000E6B6F000E686F000E86
:101ACA00696F000E6E6F000E6F6F000E6C6F000E66
:101ADA006D6F180E436F980E446F010E456F000E1E
:101AEA006F6E6ECF01F0E00E0116D8B41200F9D76E
:101AFA00F0EC0DF0B2EC0DF01C0E136E000E146E2D
:101B0A0085EC07F0E806D8B499EC0DF08198660EDA
:101B1A001B6E760E1A6EC10EE82EFED71A2EFCD751
:101B2A001B2EFAD700F0E6D78188330E026EBB0E61
:101B3A00016EE00EE82EFED7012EFCD7022EFAD750
:101B4A008198330E026EBB0E016EE00EE82EFED7B0
:101B5A00012EFCD7022EFAD7120081880B0E026ED4
:101B6A00260E016E5E0EE82EFED7012EFCD7022E3F
:101B7A00FAD781980B0E026E260E016E5E0EE82EC3
:101B8A00FED7012EFCD7022EFAD71200000E896E5C
:101B9A00000E8A6E000E8B6EEF0E926EEF0E936E33
:101BAA00BF0E946E1F0E0F015D6F050E5C6F000E67
:101BBA005B6FF18E1200600ED36E000ED26E000EB5
:101BCA009B6E000E9A6E1200000EF86E0F0EF76EE4
:101BDA0000017DEF0DF0CBEC0DF0E0EC0DF0B6EC72
:041BEA000CF01200E9
:020000040020DA
:08000000FFFFFFFFFFFFFFFF00
:020000040030CA
:0E0000001508677CFF0091FF0FC00FE00F4056
:00000001FF
