:04000000DDEF08F038
:101000000020776F77206C636420776F726B73209A
:10101000206E696365206F6E6521212020202020CD
:03102000200000AD
:10102400020ED2EC08F0000E0B6E000E0A6E0BBE20
:1010340006D00B5015E1100E0A5CD8B011D00A503E
:101044000624086E0B500720096E08C0F6FF09C07D
:10105400F7FF0800F550C7EC08F00A4A0B2AE7D757
:10106400C00ED2EC08F0000E0D6E100E0C6E0DBE0C
:1010740006D00D5015E1200E0C5CD8B012000C50B7
:101084000624086E0D500720096E08C0F6FF09C03B
:10109400F7FF0800F550C7EC08F00C4A0D2AE7D713
:1010A4001200030E026EE80E016EA7EC08F0000EAB
:1010B400026E100E016EA7EC08F0030E8DEC08F022
:1010C400000E026E050E016EA7EC08F0030E8DEC07
:1010D40008F0000E026E010E016EA7EC08F0030E7C
:1010E4008DEC08F0000E026E050E016EA7EC08F000
:1010F400020E8DEC08F0280ED2EC08F0080ED2ECAB
:1011040008F0010ED2EC08F0060ED2EC08F00D0E39
:10111400D2EC08F01200046E8B50F00B04248B6E9A
:10112400000E026E010E016EA7EC08F08B9A000E01
:10113400026E010E016EA7EC08F08B8A000E026E9F
:10114400020E016EA7EC08F0120008D0060E036E22
:10115400300EE82EFED7032EFCD700D00106D8A00F
:1011640002060128F3E10228D8B41200EFD7000EDA
:10117400946E8B9C8B9E8B8A53EC08F0010E066E4A
:10118400100E076E12EC08F0FFD7056E8B8E053833
:101194000F0B8DEC08F005500F0B8DEC08F01200CE
:1011A400056E8B9E05380F0B8DEC08F005500F0B68
:1011B4008DEC08F01200000EF86E100EF76E0001B0
:0411C400B9EF08F087
:020000040020DA
:08000000FFFFFFFFFFFFFFFF00
:020000040030CA
:0E000000FF021F1EFF8385FF0FC00FE00F40A1
:00000001FF
