:0400000068EF00F0B5
:100008004C82FACF01F0FBCF02F0E9CF03F0EACF40
:1000180004F0E1CF05F0E2CF06F0D9CF07F0DACF50
:1000280008F0F3CF09F0F4CF0AF0F6CF0BF0F7CFD2
:100038000CF0F8CF0DF0F5CF0EF04CC00FF04DC01E
:1000480010F04EC011F04FC012F0F2BAF2A403D073
:10005800E9EC14F013D0F2AC11D076B477A403D045
:1000680051EC15F00BD09DB89EA803D033EC14F0DA
:1000780005D09DBA9EAA02D060EC14F012C04FF0D1
:1000880011C04EF010C04DF00FC04CF00EC0F5FF7F
:100098000DC0F8FF0CC0F7FF0BC0F6FF0AC0F4FF55
:1000A80009C0F3FF08C0DAFF07C0D9FF06C0E2FFA6
:1000B80005C0E1FF04C0EAFF03C0E9FF02C0FBFF7F
:0C00C80001C0FAFF4C921100B9EF13F0D8
:090F0000004750524D430000006F
:100F0A0036EC15F0F28EF28C000E01011C6F000E09
:100F1A00016F000E006F000E786F010E5D6F000EFC
:100F2A000101786F6FEC13F001017C6F240E7C19BC
:100F3A00D8A422D0000E686F000E676F6FEC13F012
:100F4A0014D068BF06D068515DE13C0E675DD8B029
:100F5A0059D01D0E6725D96E010E6821DA6E7CC143
:100F6A00DFFF674B682B6FEC13F001017C6F2A0ED1
:100F7A007C19D8B447D0E5D7000E1A6E040E196E44
:100F8A0014EC13F000019A6F9B6B9C6B9AC021F0D2
:100F9A009BC022F09CC023F001015D5100019D6FAE
:100FAA009E6B9F6B9DC024F09EC025F09FC026F0CB
:100FBA00DFEC12F021502210D8A424D0010E010136
:100FCA00786F000E6A6F000E696F6FEC13F014D021
:100FDA006ABF06D06A5116E13C0E695DD8B012D0DC
:100FEA001D0E6925D96E010E6A21DA6E7CC1DFFFFA
:100FFA00694B6A2B6FEC13F001017C6F2A0E7C1986
:10100A00D8A4E6D701017851D8B4BBD1000E616FDC
:10101A00000E626F000E636F000E646F000E656F44
:10102A00000E666F000E786F000E806F000E7F6FE5
:10103A0080BF08D0805105E13C0E7F5DD8B030D129
:10104A0001D02ED11D0E7F25D96E010E8021DA6EB8
:10105A004E0EDE18D8B40AD01D0E7F25D96E010EA9
:10106A008021DA6E530EDE18D8A47DD0040E136EDA
:10107A00010E146E1D0E156E010E166E7FC117F04D
:10108A0080C118F0A7EC12F0000E0101766F000E75
:10109A006F6F000E6E6F6FBF06D06F511AE1050EAB
:1010AA006E5DD8B016D0040E6E25D96E010E6F2172
:1010BA00DA6EDF5076EC14F0D8A002D0010E01D01F
:1010CA00000E0101766F7651D8B403D06E4B6F2BA8
:1010DA00E2D7000E716F060E706F71BF06D07151A4
:1010EA001AE10A0E705DD8B016D0040E7025D96EBA
:1010FA00010E7121DA6EDF5076EC14F0D8A002D01E
:10110A00010E01D0000E0101766F7651D8B403D0DA
:10111A00704B712BE2D77651D8B4B9D0040E0001C6
:10112A006E6F010E6F6F000E706F71EC0DF06EC076
:10113A0064F16FC065F170C066F164C16BF165C19D
:10114A006CF166C16DF164C113F065C114F066C13A
:10115A0015F02AEC10F013C059F114C05AF101012C
:10116A0059515A1190D01D0E7F25D96E010E80213A
:10117A00DA6E410EDE18D8B40AD01D0E7F25D96E5C
:10118A00010E8021DA6E560EDE18D8A482D0100E17
:10119A00136E010E146E1D0E156E010E166E7FC1B2
:1011AA0017F080C118F0A7EC12F0000E0101776F5A
:1011BA00000E736F000E726F73BF06D073511AE17F
:1011CA00040E725DD8B016D0100E7225D96E010EBB
:1011DA007321DA6EDF5076EC14F0D8A002D0010E3B
:1011EA0001D0000E0101776F7751D8B403D0724B4A
:1011FA00732BE2D7000E756F050E746F75BF06D09C
:10120A0075511AE10A0E745DD8B016D0100E742505
:10121A00D96E010E7521DA6EDF5076EC14F0D8A083
:10122A0002D0010E01D0000E0101776F7751D8B4B8
:10123A0003D0744B752BE2D77751D8B428D0100E4F
:10124A0000016E6F010E6F6F010E706F71EC0DF081
:10125A006EC061F16FC062F170C063F161C179F172
:10126A0062C17AF163C17BF161C113F062C114F00A
:10127A0063C115F02AEC10F013C05BF114C05CF1E5
:10128A0001015B515C11D8B402D0010E01D0000EED
:10129A00786F7F4B802B80BFD5D6805101E1CCD6A9
:1012AA007851D8B46CD0000E826F000E816F000E98
:1012BA00036F030E026F790E8125D96E010E82210A
:1012CA00DA6EDF50606F814B822B790E8125D96EE1
:1012DA00010E8221DA6EDF50606F814B822B790E0C
:1012EA008125D96E010E8221DA6EDF50606F814B43
:1012FA00822B790E8125D96E010E8221DA6EDF509A
:10130A00606F000E826F000E816F814B822B6B0E15
:10131A008125D96E010E8221DA6EDF50606F814B12
:10132A00822B6B0E8125D96E010E8221DA6EDF5077
:10133A00606F814B822B814B822B000E5F6F000EF8
:10134A005E6F7D0E256E010E266EF2EC0BF000012B
:10135A009A6F9A5101015E6F5F6B060E00019B6FD7
:10136A00130E9A6FAD0EE82EFED79A2FFCD79B2F3D
:10137A00FAD700D001015E055F11D8A4E2D7000EAA
:10138A00786F1D0E136E010E146E000E166E000E8F
:10139A00156E000E186E3C0E176E4AEC14F0100E05
:1013AA00136E010E146E000E166E000E156E000EF0
:1013BA00186E0C0E176E4AEC14F0040E136E010E22
:1013CA00146E000E166E000E156E000E186E0C0EC0
:1013DA00176E4AEC14F0060E00019B6F130E9A6FFB
:1013EA00AD0EE82EFED79A2FFCD79B2FFAD700D046
:1013FA0096D5000162516311D8B40CD062C0D9FFEE
:10140A0063C0DAFF60C0DEFF61C0DDFF03D0000108
:10141A00604B612B60C0D9FF61C0DAFFDF50646F97
:10142A006451B2EC14F0D8B0F2D7000E0001656F27
:10143A002D0E6419D8A403D0010E656F04D02B0EAB
:10144A006419D8A402D0604B612B000E646F000EA1
:10145A00676F000E686F000E696F000E6A6F000EEC
:10146A00666F65B90AD060C0D9FF61C0DAFF2E0E77
:10147A00DE18D8A402D065893ED060C0D9FF61C009
:10148A00DAFFDF501BEC15F0D8A038D000016583D5
:10149A00080E6419D8B42DD065B96607642B67C0E5
:1014AA0013F068C014F069C015F06AC016F00A0E8D
:1014BA00176E000E186E000E196E000E1A6E44ECAE
:1014CA0013F013C067F014C068F015C069F016C0B5
:1014DA006AF060C0D9FF61C0DAFFDF50396ED00E02
:1014EA003926395000016727000E682369236A23C9
:1014FA0002D065A9662B604B612BB3D7000E0001A1
:10150A00646F60C0D9FF61C0DAFF650EDE18D8B417
:10151A0008D060C0D9FF61C0DAFF450EDE18D8A432
:10152A0062D0604B612B60C0D9FF61C0DAFF2D0E1B
:10153A00DE18D8A402D0658708D060C0D9FF61C080
:10154A00DAFF2B0EDE18D8A402D0604B612B60C0E4
:10155A00D9FF61C0DAFF300EDE18D8B4F6D760C002
:10156A00D9FF61C0DAFFDF501BEC15F0D8A038D0E4
:10157A0060C0D9FF61C0DAFFDF50D00F0001646F8D
:10158A00604B612B60C0D9FF61C0DAFFDF501BECF2
:10159A0015F0D8A025D060C0D9FF61C0DAFFDF50AE
:1015AA00396E000164510A0DF3503924D00F646F6B
:1015BA00604B612B60C0D9FF61C0DAFFDF501BECC2
:1015CA0015F0D8A00DD060C0D9FF61C0DAFFDF5096
:1015DA00396E000164510A0DF3503924D00F646F3B
:1015EA00000165B7646D6451662762516311D8A41E
:1015FA0065A308D062C0D9FF63C0DAFF60C0DEFF0E
:10160A0061C0DDFF67C01BF068C01CF069C01DF037
:10161A006AC01EF030EC12F01BC067F01CC068F004
:10162A001DC069F00001675168116911D8A407D07B
:10163A00000E606F000E616F000E626F120066AFDF
:10164A0059D0666D17D067C02AF068C02BF069C000
:10165A002CF0030E2D6E150E2E6E500E2F6E1EECF4
:10166A0011F02AC067F02BC068F02CC069F0F60EA2
:10167A00000166276651800A760FD8A017D0E3D7F3
:10168A0067C02AF068C02BF069C02CF0000E2D6EDE
:10169A00200E2E6E410E2F6E1EEC11F02AC067F03E
:1016AA002BC068F02CC069F0000166076651D8A407
:1016BA00E7D767C013F068C014F069C015F0000ED0
:1016CA00166E800E176E000E186EE8EC11F0D8B088
:1016DA006CD0000165A107D0000E606F800E616FAB
:1016EA00800E626F1200000E606F800E616F000E36
:1016FA00626F12006651800A7F0FD8B018D055D099
:10170A0067C01BF068C01CF069C01DF0030E1E6E96
:10171A00150E1F6E500E206EA4EC10F01BC067F061
:10172A001CC068F01DC069F0F60E000166270A0E9B
:10173A006661E6D716D067C01BF068C01CF069C0A6
:10174A001DF0000E1E6E200E1F6E410E206EA4ECC0
:10175A0010F01BC067F01CC068F01DC069F00001E2
:10176A0066076651D8A4E7D7FF0E136E7F0E146E74
:10177A007F0E156E67C016F068C017F069C018F0C2
:10178A00E8EC11F0D8B011D0000165A107D0000E25
:10179A00606F800E616F800E626F1200000E606FC4
:1017AA00800E616F000E626F1200000165A10ED0FB
:1017BA0067C013F068C014F069C015F0D7EC14F0D4
:1017CA0013C067F014C068F015C069F067C060F014
:1017DA0068C061F069C062F01200000E286E000E47
:1017EA00296E000E2A6E000E2B6E000E276E0F0158
:1017FA0020B779D020EE01F02550D9262650DA22DA
:10180A00DECF13F0DECF14F0DECF15F0DECF16F008
:10181A0025C0D9FF26C0DAFFDF50176E280E186ED2
:10182A00000E196E290E1A6E000E1B6E2A0E1C6E01
:10183A00000E1D6E2B0E1E6E000E1F6E5BEC0FF05F
:10184A0028C023FF29C024FF2AC021FF2BC022FF62
:10185A0020EE05F02550D9262650DA22DF500F0156
:10186A00256F20EE06F02550D9262650DA22DF50C1
:10187A00266F20EE07F02550D9262650DA22DF50AF
:10188A00276F20EE08F02550D9262650DA22DF509D
:10189A00286F20EE09F02550D9262650DA22DF508B
:1018AA00296F20EE0AF02550D9262650DA22DF5079
:1018BA002A6F20EE0BF02550D9262650DA22DF5067
:1018CA002B6F20EE0CF02550D9262650DA22DF5055
:1018DA002C6F20EE0DF02550D9262650DA22DF5043
:1018EA002D6F2087F5D010B779D020EE01F0255062
:1018FA00D9262650DA22DECF13F0DECF14F0DECF5F
:10190A0015F0DECF16F025C0D9FF26C0DAFFDF506A
:10191A00176E280E186E000E196E290E1A6E000E1A
:10192A001B6E2A0E1C6E000E1D6E2B0E1E6E000EF6
:10193A001F6E5BEC0FF028C013FF29C014FF2AC0EA
:10194A0011FF2BC012FF20EE05F02550D926265094
:10195A00DA22DF500F01156F20EE06F02550D92646
:10196A002650DA22DF50166F20EE07F02550D926CE
:10197A002650DA22DF50176F20EE08F02550D926BC
:10198A002650DA22DF50186F20EE09F02550D926AA
:10199A002650DA22DF50196F20EE0AF02550D92698
:1019AA002650DA22DF501A6F20EE0BF02550D92686
:1019BA002650DA22DF501B6F20EE0CF02550D92674
:1019CA002650DA22DF501C6F20EE0DF02550D92662
:1019DA002650DA22DF501D6F10877AD000B77AD0EE
:1019EA0020EE01F02550D9262650DA22DECF13F058
:1019FA00DECF14F0DECF15F0DECF16F025C0D9FF0A
:101A0A0026C0DAFFDF50176E280E186E000E196E08
:101A1A00290E1A6E000E1B6E2A0E1C6E000E1D6E0B
:101A2A002B0E1E6E000E1F6E5BEC0FF028C003FF1C
:101A3A0029C004FF2AC001FF2BC002FF20EE05F0D7
:101A4A002550D9262650DA22DF500F01056F20EEE5
:101A5A0006F02550D9262650DA22DF50066F20EEEE
:101A6A0007F02550D9262650DA22DF50076F20EEDC
:101A7A0008F02550D9262650DA22DF50086F20EECA
:101A8A0009F02550D9262650DA22DF50096F20EEB8
:101A9A000AF02550D9262650DA22DF500A6F20EEA6
:101AAA000BF02550D9262650DA22DF500B6F20EE94
:101ABA000CF02550D9262650DA22DF500C6F20EE82
:101ACA000DF02550D9262650DA22DF500D6F0087F7
:101ADA00010E276E2750120000017051D8B457D05A
:101AEA0020EEACF010EE7DF00A0EDBCFE3FFE80645
:101AFA00FCE27D0E136E000E146E6EC015F06FC000
:101B0A0016F0000E186E090E176E97EC13F000010E
:101B1A0020EE08F06E51D9266F51DA22530EDE18E4
:101B2A00D8B40DD07D0E6B6F000E6C6FC5EC14F03F
:101B3A006BC088F06CC089F06DC08AF021D07D0E30
:101B4A0000016B6F000E6C6FC5EC14F06BC091F066
:101B5A006CC092F06DC093F091C01BF092C01CF063
:101B6A0093C01DF0000E1E6E800E1F6EBF0E206EFB
:101B7A00A4EC10F01BC088F01CC089F01DC08AF0CC
:101B8A0088C097F089C098F08AC099F056D020EEA4
:101B9A00A0F010EE71F00B0EDBCFE3FFE806FCE2DB
:101BAA00710E136E000E146E6EC015F06FC016F033
:101BBA00000E186E0A0E176E97EC13F0000120EE55
:101BCA000BF06E51D9266F51DA22570EDE18D8B4AF
:101BDA000DD0710E6B6F000E6C6FC5EC14F06BC0FC
:101BEA008BF06CC08CF06DC08DF021D0710E0001AD
:101BFA006B6F000E6C6FC5EC14F06BC091F06CC08B
:101C0A0092F06DC093F091C01BF092C01CF093C08B
:101C1A001DF0000E1E6E800E1F6EBF0E206EA4EC0D
:101C2A0010F01BC08BF01CC08CF01DC08DF08BC057
:101C3A0097F08CC098F08DC099F097C02AF098C0A0
:101C4A002BF099C02CF0000E2D6EC80E2E6E420E8F
:101C5A002F6E1EEC11F02AC097F02BC098F02CC002
:101C6A0099F097C027F098C028F099C029F0940EEF
:101C7A002A6E000E2B6E6CEC12F027C08EF028C074
:101C8A008FF029C090F0000E1E6EC80E1F6E420E15
:101C9A00206E8EC01BF08FC01CF090C01DF0A4EC0B
:101CAA0010F01BC02AF01CC02BF01DC02CF0000E37
:101CBA002D6E700E2E6E420E2F6E1EEC11F02AC083
:101CCA008EF02BC08FF02CC090F094C01BF095C002
:101CDA001CF096C01DF08EC01EF08FC01FF090C081
:101CEA0020F085EC0EF01BC097F01CC098F01DC0C8
:101CFA0099F097C06EF098C06FF099C070F012001A
:101D0A001DC021F0226A236A1C34213601E3228095
:101D1A002150266E20C021F0226A236A1F34213600
:101D2A0001E322802150256E2650D8B40BD02550CD
:101D3A00265CD8B00ED0265000082524216E180E35
:101D4A00216407D01EC01BF01FC01CF020C01DF06C
:101D5A0012002550D8B40BD02650255CD8B00ED02E
:101D6A00255000082624216E180E216407D01BC0B6
:101D7A001BF01CC01CF01DC01DF01200060E246EC4
:101D8A001DBE248E20BE248C1C8EFF0E1B16FF0E39
:101D9A001C16000E1D161F8EFF0E1E16FF0E1F1696
:101DAA00000E20162550265CD8B01BD0D8901E36BF
:101DBA001F362036250626502518D8B40DD02406FD
:101DCA0024C021F0070E2116D8B406D0EFD7D89038
:101DDA001D321C321B32262A25502618D8B41FD091
:101DEA00F6D72650255CD8B01AD0D8901B361C36A8
:101DFA001D36260626502518D8B40DD0240624C030
:101E0A0021F0070E2116D8B406D0EFD7D890203289
:101E1A001F321E32252A25502618D8A4F7D724AEF9
:101E2A000CD0FF0E1B1AFF0E1C1AFF0E1D1A010EF4
:101E3A001B26000E1C22000E1D2224AC0CD0FF0E05
:101E4A001E1AFF0E1F1AFF0E201A010E1E26000E62
:101E5A001F22000E2022000E246E1B501E261C502C
:101E6A001F221D50202220AE0ED0FF0E1E1AFF0E7A
:101E7A001F1AFF0E201A010E1E26000E1F22000E28
:101E8A002022010E246E1EC013F01FC014F020C0C1
:101E9A0015F026C016F024C017F091EC11F013C00B
:101EAA001BF014C01CF015C01DF01200000E246EA9
:101EBA00020E1718D8A481D01AC0D9FF1BC0DAFFA6
:101ECA0013C0DFFF13C020F014C021F015C022F0A8
:101EDA0016C023F021C020F022C021F023C022F036
:101EEA00236A20C013F021C014F022C015F023C0C9
:101EFA0016F018C0D9FF19C0DAFF13C0DFFF13C0EC
:101F0A0020F014C021F015C022F016C023F021C021
:101F1A0020F022C021F023C022F0236A20C013F04F
:101F2A0021C014F022C015F023C016F01350030B81
:101F3A00246E13C020F014C021F015C022F016C080
:101F4A0023F0030ED8902036213622362336E82E87
:101F5A00F9D720C013F021C014F022C015F023C015
:101F6A0016F01350E00B2424246E2450080F246E1C
:101F7A002450EB0B1EC0D9FF1FC0DAFFDF6E13C05F
:101F8A0020F014C021F015C022F016C023F021C0A1
:101F9A0020F022C021F023C022F0236A20C013F0CF
:101FAA0021C014F022C015F023C016F01CC0D9FFBE
:101FBA001DC0DAFF13C0DFFF120018C0D9FF19C015
:101FCA00DAFF000EDF6E1AC0D9FF1BC0DAFF000E5F
:101FDA00DF6E13C020F014C021F015C022F016C025
:101FEA0023F0050ED8902036213622362336E82EE5
:101FFA00F9D720C013F021C014F022C015F023C075
:10200A0016F01EC0D9FF1FC0DAFF13C0DFFF13C0CE
:10201A0020F014C021F015C022F016C023F021C010
:10202A0020F022C021F023C022F0236A20C013F03E
:10203A0021C014F022C015F023C016F01CC0D9FF2D
:10204A001DC0DAFF13C0DFFF120015C017F0186AAF
:10205A00196A1434173601E318801750216E21507B
:10206A00D8A409D0000E136E000E146E000E156E61
:10207A00000E166E1200170E176E13C018F014C059
:10208A0019F015C01AF017281B6E04D0D8901A320E
:10209A00193218321B2EFAD718501C6E148EFF0EE6
:1020AA001316FF0E1416000E151613501D6E14503B
:1020BA001E6E15501F6E206A8E0E215E21AE16D03E
:1020CA002150800A8F0FD8B009D0000E136E000E6F
:1020DA00146E000E156E000E166E1200D890203285
:1020EA001F321E321D32213EF9D715D0170E216438
:1020FA000FD0000E136E000E146E000E156E000E39
:10210A00166E1200D8901D361E361F36203621064E
:10211A002150D8A4F7D71C50D8B408D0201E1F1EAF
:10212A001E1E1D6C000E1E221F2220221DC013F02F
:10213A001EC014F01FC015F020C016F012001DC0FA
:10214A0021F0226A236A1C34213601E322802150BD
:10215A00246E2450D8A407D0000E1B6E000E1C6EED
:10216A00000E1D6E120020C021F0226A236A1F345D
:10217A00213601E322802150296E2950D8A407D0A4
:10218A00000E1B6E000E1C6E000E1D6E12002950F2
:10219A007B0F24261DC029F02050291A800E2916EB
:1021AA001C8E1F8EFF0E1E16FF0E1F16000E201607
:1021BA00000E256E000E266E000E276E070E286E84
:1021CA001BA006D01E5025261F502622205027224B
:1021DA00D8901D321C321B32D8901E361F3620363C
:1021EA00282EEED7090E286E1BA006D01E502526D3
:1021FA001F50262220502722D8901D321C321B3213
:10220A00D890273226322532282EEED725C013F051
:10221A0026C014F027C015F024C016F029C017F004
:10222A0091EC11F013C01BF014C01CF015C01DF086
:10223A0012002CC030F0316A326A2B34303601E396
:10224A0031803050376E3750D8A407D0000E2A6E2E
:10225A00000E2B6E000E2C6E12002FC030F0316A69
:10226A00326A2E34303601E331803050386E3850BD
:10227A00D8A407D0000E2A6E000E2B6E000E2C6E0C
:10228A001200000E346E000E356E000E366E385097
:10229A00890F375E2CC038F02F50381A800E381646
:1022AA002B8EFF0E2A16FF0E2B16000E2C162E8EC4
:1022BA00FF0E2D16FF0E2E16000E2F16180E336E59
:1022CA00D8903436353636362D502A5C2E502B5857
:1022DA002F502C58D8A007D02D502A5E2E502B5A9A
:1022EA002F502C5A3480D8902A362B362C36332E3F
:1022FA00E7D734C013F035C014F036C015F037C034
:10230A0016F038C017F091EC11F013C02AF014C07F
:10231A002BF015C02CF012001650D8B405D013506B
:10232A0014101510D8A40CD0000E136E000E146EE3
:10233A00000E156E1200162AD89015321432133276
:10234A00000E1314186E000E1414196EFE0E1514D6
:10235A001A6E185019101A10D8B40CD0ECD7162AC5
:10236A00010E1326000E1422000E1522D8901532E3
:10237A0014321332000E1314186E000E1414196E50
:10238A00FF0E15141A6E185019101A10D8B406D068
:10239A00E6D71606D89013361436153614BE03D06F
:1023AA00020E1660F6D716A0149ED8901632165052
:1023BA0015121750D8A4158E13C013F014C014F0B8
:1023CA0015C015F0120015AE16D013C019F014C0BE
:1023DA001AF015C01BF0191E1A1E1B1E192A000E10
:1023EA001A221B22000E1924136E000E1A20146ED4
:1023FA00800E1B20156E18AE16D016C019F017C025
:10240A001AF018C01BF0191E1A1E1B1E192A000EDC
:10241A001A221B22000E1924166E000E1A20176E9D
:10242A00800E1B20186E000E131A000E141A800E4E
:10243A00151A000E161A000E171A800E181A1650C0
:10244A00135C1750145818501558D8B002D0D890A9
:10245A001200D8801200000E246E8E0E236E1EAE5D
:10246A0011D01E1E1D1E1C1E1B6C000E1C221D22BE
:10247A001E22010E246E06D0D8901E321D321C3246
:10248A001B32232A000E1B141F6E000E1C14206E12
:10249A00000E1D14216EFF0E1E14226E1F502010F6
:1024AA0021102210D8A4E8D71BC013F01CC014F0C6
:1024BA001DC015F023C016F024C017F091EC11F0DE
:1024CA0013C01BF014C01CF015C01DF0120027C069
:1024DA0013F028C014F029C015F02AEC10F013C02C
:1024EA0022F014C023F015C024F0FAEC13F02AC02D
:1024FA00D9FF2BC0DAFF22C0DEFF23C0DEFF24C0D3
:10250A00DEFF2AC0D9FF2BC0DAFFDECF13F0DECF01
:10251A0014F0DDCF15F0D7EC14F013C01BF014C083
:10252A001CF015C01DF027C01EF028C01FF029C0DE
:10253A0020F085EC0EF01BC027F01CC028F01DC04F
:10254A0029F01200020E17241D6E000E18201E6EAE
:10255A00000E1A6E000E196E000E1C6E000E1B6E17
:10256A001BD01D501524D96E1E501620DA6EDF506E
:10257A001F6E2C0E1F18D8A403D01B4A1C2A0AD07F
:10258A0019501324D96E1A501420DA6E1FC0DFFFB7
:10259A00194A1A2A1D4A1E2A1C500BE1020E1B5CFC
:1025AA00D8B012001E5005E13C0E1D5CD8B01200D6
:1025BA00D8D712000CD0010E2126000E2222000EBE
:1025CA002322010E2426000E2522000E262221C0D7
:1025DA00F6FF22C0F7FF23C0F8FF0800F5CF27F067
:1025EA0024C0F6FF25C0F7FF26C0F8FF0800F55003
:1025FA0000082724286E2850D8A40BD021C0F6FF43
:10260A0022C0F7FF23C0F8FF0800F5500009D8A43C
:10261A00D2D72850216E226A21BE22061200000E4D
:10262A001E6E000E1D6E010E1F6E0F0E206E1FC055
:10263A0013F020C014F0DAEC13F013C019F014C030
:10264A001AF011D01D501F241B6E1E5020201C6E24
:10265A001BC0F6FF1CC0F7FFF86A6FEC13F0F56EAB
:10266A000C001D4A1E2A19501D5C1E50800A1B6E42
:10267A001A50800A1B58D8A0E5D71F501200000E26
:10268A001B6E000E1C6E000E1D6E000E1E6E13A039
:10269A0008D017501B2618501C2219501D221A50F8
:1026AA001E22D8901736183619361A36D89016328E
:1026BA001532143213321350141015101610D8A4F0
:1026CA00E6D71BC013F01CC014F01DC015F01EC0C5
:1026DA0016F01200000E156E000E146E000E136E28
:1026EA0009D0134A142A14BE05D01404D8A002D063
:1026FA00000E12004350D8B4F4D74450010DB70E5F
:10270A00F324D96E000EF420DA6EDF50156E442AD7
:10271A00070E446402D0000E446E9D9A43069D8AB9
:10272A001550120015C01BF016C01CF013C019F08A
:10273A0014C01AF010D01BC0D9FF1CC0DAFFDF503A
:10274A001D6E1B4A1C2A19C0D9FF1AC0DAFF1DC008
:10275A00DFFF194A1A2A1706D8A018061728EBE12C
:10276A001828D8B41200E7D7540EF66E2A0EF76E60
:10277A00000EF86E00EEA0F010EE17F00900F5CF8B
:10278A00EEFFE550E150FAE100EEB7F0080EEE6A0E
:10279A00E806FDE100EE3BF00D0EEE6AE806FDE10B
:1027AA004C904C92000185EF07F013C017F014C04B
:1027BA0018F002D0174A182A17C0F6FF18C0F7FFF8
:1027CA00F86A0800F5500009D8A4F4D713C015F028
:1027DA0014C016F0151E161E154A162A175015246F
:1027EA00136E18501620146E1200000E256E24AEB9
:1027FA0008D0241E231E226C000E23222422010E3E
:10280A00256E22C013F023C014F024C015F08E0EDA
:10281A00166E25C017F091EC11F013C022F014C007
:10282A0023F015C024F012009D9A9D980A0EA76EF7
:10283A00900EAB6E040EAC6ECF0EAF6E000E7D6EB8
:10284A00000E476E000E466E080E4A6E000E456E6A
:10285A00000E446E000E436E9D8A1200080E4A60F6
:10286A0012D04650010D3B0EF324D96E000EF4200F
:10287A00DA6EDF50AD6E462A070E466402D0000EAD
:10288A00466E4A2A12009D98120013C019F014C00D
:10289A001AF008D019C0D9FF1AC0DAFF15C0DFFF35
:1028AA00194A1A2A1706D8A018061728F3E1182871
:1028BA00D8B41200EFD7ABA202D0AB98AB88455080
:1028CA00010DB70EF324D96E000EF420DA6EAECFE6
:1028DA00DFFF452A070E456402D0000E456E432AE3
:1028EA0012001B6E010E1A6E3A0E1B6003D0300ED8
:1028FA001B6007D01B508AEC14F0D8B002D0000E2F
:10290A001A6E1AC019F019301200186E010E176EDD
:10291A007B0E186003D0610E186007D018500CECBB
:10292A0015F0D8B002D0000E176E17C016F0163088
:10293A001200000E896E000E8A6E000E8B6EEF0E6C
:10294A00926EFB0E936E94681F0E0F015D6F070E59
:10295A005C6F000E5B6FF18E1200156E010E146E25
:10296A00200E1518D8B408D00E0E156003D0090E23
:10297A00156002D0000E146E14C013F0133012004A
:10298A006BC060F06CC061F0000E0001626F000E57
:10299A00636FFEEC09F060C06BF061C06CF062C05E
:1029AA006DF01200135014101510D8B406D0000E92
:1029BA00131A000E141A800E151A13C013F014C03D
:1029CA0014F015C015F01200F2944BC0D6FF48500F
:1029DA004910D8B4120001D812000500FA6E485006
:1029EA00FD6E4950FE6EFF6AFA501200000ED76E55
:1029FA003D0ED66E3D0E4B6EF294F28AA60E136E03
:102A0A002A0E146E4AEC15F0D70ED56E1200156E0A
:102A1A00000E146E5B0E156005D0400E156402D0D0
:102A2A00010E146E14C013F013301200156E000E4E
:102A3A00146E3A0E156005D02F0E156402D0010EE1
:102A4A00146E14C013F0133012003031322E3031AC
:102A5A0032333435000030312E30313233343500E0
:012A6A00006B
:102A6C004FEC15F09EEC14F041EC15F0FBEC14F06F
:102A7C0019EC14F01200620ED36E000ED26E000E22
:102A8C009B6E000E9A6E120013C048F014C049F0F1
:0C2A9C001200D09E12007794120012006D
:020000040020DA
:08000000FFFFFFFFFFFFFFFF00
:020000040030CA
:0E00000015037F7CFF8991FF0FC00FE00F40BA
:00000001FF
