:040000005DEF00F0C0
:100008004582FACF1DF0FBCF1EF0E9CF1FF0EACFF3
:1000180020F0E1CF21F0E2CF22F0D9CF23F0DACFE0
:1000280024F0F3CF25F0F4CF26F0F6CF27F0F7CF62
:1000380028F0F8CF29F0F5CF2AF045C02BF046C0BC
:100048002CF047C02DF048C02EF0F2BC76A005D0A9
:1000580077A003D0DCEC03F006D0F2BC9DA003D05F
:100068009EB0A0EC03F02EC048F02DC047F02CC085
:1000780046F02BC045F02AC0F5FF29C0F8FF28C07C
:10008800F7FF27C0F6FF26C0F4FF25C0F3FF24C002
:10009800DAFF23C0D9FF22C0E2FF21C0E1FF20C060
:1000A800EAFF1FC0E9FF1EC0FBFF1DC0FAFF459213
:1000B800110087EF03F0000E166E60AE83D062A6C3
:1000C8001ED014C0D9FF15C0DAFF020EDF6E64CF50
:1000D80001F061CF02F062CF03F063502CEC02F024
:1000E80020EE01F01450D9261550DA2201C0DEFFA7
:1000F80002C0DEFF03C0DEFF04C0DEFF19D014C05B
:10010800D9FF15C0DAFF010EDF6E62CF01F0615032
:1001180026EC03F020EE01F01450D9261550DA220F
:1001280001C0DEFF02C0DEFF03C0DEFF04C0DEFF49
:1001380020EE05F01450D9261550DA2265CFDFFFDE
:1001480020EE06F01450D9261550DA2266CFDFFFCC
:1001580020EE07F01450D9261550DA2267CFDFFFBA
:1001680020EE08F01450D9261550DA2268CFDFFFA8
:1001780020EE09F01450D9261550DA2269CFDFFF96
:1001880020EE0AF01450D9261550DA226ACFDFFF84
:1001980020EE0BF01450D9261550DA226BCFDFFF72
:1001A80020EE0CF01450D9261550DA226CCFDFFF60
:1001B80020EE0DF01450D9261550DA226DCFDFFF4E
:1001C800609E87D00F0130AF86D032A71ED014C0F2
:1001D800D9FF15C0DAFF020EDF6E34CF01F031CF40
:1001E80002F032CF03F033512CEC02F020EE01F094
:1001F8001450D9261550DA2201C0DEFF02C0DEFFF6
:1002080003C0DEFF04C0DEFF1AD014C0D9FF15C03A
:10021800DAFF010EDF6E32CF01F00F01315126EC0B
:1002280003F020EE01F01450D9261550DA2201C04F
:10023800DEFF02C0DEFF03C0DEFF04C0DEFF20EEEB
:1002480005F01450D9261550DA2235CFDFFF20EEFD
:1002580006F01450D9261550DA2236CFDFFF20EEEB
:1002680007F01450D9261550DA2237CFDFFF20EED9
:1002780008F01450D9261550DA2238CFDFFF20EEC7
:1002880009F01450D9261550DA2239CFDFFF20EEB5
:100298000AF01450D9261550DA223ACFDFFF20EEA3
:1002A8000BF01450D9261550DA223BCFDFFF20EE91
:1002B8000CF01450D9261550DA223CCFDFFF20EE7F
:1002C8000DF01450D9261550DA223DCFDFFF0F016B
:1002D800309F010E166E7792120017C014F018C0E6
:1002E80015F05FEC00F084D020EE06F01750D92608
:1002F8001850DA22DF50D8A402D08A94120020EED7
:1003080006F01750D9261850DA22DE04D8A41200B5
:100318008A84120020EE06F01750D9261850DA22E7
:10032800DF50D8A402D08A92120020EE06F01750AF
:10033800D9261850DA22DE04D8A412008A821200C4
:1003480020EE06F01750D9261850DA22DF50D8A42C
:1003580002D08B96120020EE06F01750D9261850BE
:10036800DA22DE04D8A412008B86120020EE06F0F2
:100378001750D9261850DA22DF50D8A402D08B9211
:10038800120020EE06F01750D9261850DA22DE04A3
:10039800D8A412008B82120020EE06F01750D9263E
:1003A8001850DA22DF50D8A402D08B94120020EE25
:1003B80006F01750D9261850DA22DE04D8A4120005
:1003C8008B84120020EE06F01750D9261850DA2236
:1003D800DF50D8A402D08A90120020EE06F0175001
:1003E800D9261850DA22DE04D8A412008A80120016
:1003F80020EE01F01750D9261850DA22DECF19F076
:10040800DECF1AF0DECF1BF0DECF1CF01C50000A46
:10041800D8A4120018D01A50000AD8A412001950F3
:10042800010AD8B461D7030AD8B474D7010AD8B47A
:1004380087D7070AD8B49AD7010AD8B4ADD7030A20
:10044800D8A41200BFD71B50000AD8A41200E3D7C3
:10045800096E000E0A6E000E0B6E000E0C6E000E7A
:100468000D6E000E106E000E116E000E126E000E54
:10047800136E0350030B0E6E0338E842070B0F6E22
:100488000250056E066AD89005360636D8900536AD
:100498000636D8900536063605C010F006C011F0AD
:1004A800000E11BEFF0E126E136E0F501024106E48
:1004B800000E1120116E000E1220126E000E132075
:1004C800136E10C005F011C006F012C007F013C07B
:1004D80008F0020ED8900536063607360836E82E9C
:1004E800F9D705C010F006C011F007C012F008C017
:1004F80013F00E501024106E000E1120116E000E15
:100508001220126E000E1320136E10C006F011C0D8
:1005180007F012C008F0056A05C010F006C011F017
:1005280007C012F008C013F009501024106E000E16
:100538001120116E000E1220126E000E1320136E81
:1005480010C006F011C007F012C008F0056A05C017
:1005580010F006C011F007C012F008C013F00150E7
:100568001024106E000E1120116E000E1220126E53
:10057800000E1320136E10C00AF011C00BF012C049
:100588000CF013C00DF00AC001F00BC002F00CC053
:1005980003F00DC004F01200800E6F6E6E50E00B79
:1005A800800AD8A4FBD7000E726E000E0E01FA6FF7
:1005B800000EFB6F000EF86F000EF96FFE69FF6901
:1005C800FC69FD69000EE26F000EE36F880EE06FB4
:1005D800800EE16F000EE66F000EE76FCC0EE46F41
:1005E800C00EE56F000EEA6F000EEB6F000EE86FAD
:1005F800000EE96F000EEE6F000EEF6F000EEC6F4D
:10060800000EED6F000EF26F000EF36F000EF06F2C
:10061800000EF16F000EF66F000EF76F000EF46F0C
:10062800000EF56F000E436F980E446F010E456F74
:10063800000E6F6E6ECF60F0E00E00016017D8B448
:100648001200F8D7076E000E086E000E096E000E35
:100658000A6E000E0B6E0750056E066AD8900536B6
:100668000636D89005360636D8900536063605C0C3
:100678000CF006C00DF0000E0DBEFF0E0E6E0F6ED4
:1006880001C005F0050E066ED8900532062EFCD77F
:1006980005500C240C6E000E0D200D6E000E0E2061
:1006A8000E6E000E0F200F6E0CC008F00DC009F082
:1006B8000EC00AF00FC00BF008C001F009C002F02C
:1006C8000AC003F00BC004F01200A00ECD6E000E9D
:1006D800AA6ECF68F80ECE6ECE50CFCF62F0000172
:1006E800636B62C063F0626B6211416E6351426E6C
:1006F8009E909D80EA0E606F070E616FEBEC03F031
:10070800F0EC03F01200E80EF66E070EF76E000E1E
:10071800F86E0900F5CF43F00900F5CF44F000EE7C
:100728002FF0100EEE6AE806FDE145904592000EA6
:10073800F86E0001E4EF03F09E904250CF6E41C086
:10074800CEFF3F504010D8B4120001D81200050067
:10075800FA6E3F50FD6E4050FE6EF850FF6EFA5034
:100768001200000E896E000E8A6E010E8B6EAF0E9F
:10077800926EF80E936EB10E946E0D0E0F015D6FB2
:10078800020E5C6F5B691200F2EC03F0B5EC03F04B
:10079800D3EC03F069EC03F0D0EC02F01200600E29
:1007A800D36E000ED26E000E9B6E000E9A6E120073
:1007B800310E176E000E186E71EC01F07790120072
:1007C80076807682C8EC03F0F28EF28CFFD760C098
:1007D8003FF061C040F01200CD801200D09E1200A0
:0407E80000081200F3
:020000040020DA
:08000000FFFFFFFFFFFFFFFF00
:020000040030CA
:0E0000001508611CFF0091FF0FC00FE00F40BC
:00000001FF
