:0400000065EF00F0B8
:100008004C82FACF1DF0FBCF1EF0E9CF1FF0EACFEC
:1000180020F0E1CF21F0E2CF22F0D9CF23F0DACFE0
:1000280024F0F3CF25F0F4CF26F0F6CF27F0F7CF62
:1000380028F0F8CF29F0F5CF2AF04CC02BF04DC0AE
:100048002CF04EC02DF04FC02EF0F2BCA0A605D06B
:10005800A1A603D07BEC06F00ED0F2BC9DA605D07D
:100068009EA603D067EC00F006D0F2BC76A003D0C1
:1000780077B070EC06F02EC04FF02DC04EF02CC0BB
:100088004DF02BC04CF02AC0F5FF29C0F8FF28C05E
:10009800F7FF27C0F6FF26C0F4FF25C0F3FF24C0F2
:1000A800DAFF23C0D9FF22C0E2FF21C0E1FF20C050
:1000B800EAFF1FC0E9FF1EC0FBFF1DC0FAFF4C92FC
:1000C800110005EF06F09E96C6AEFED0C69E000E45
:1000D8000001846F20EE03F03350D9263450DA2221
:1000E800DECF04F0DDCF05F004C0D9FF05C0DAFF8C
:1000F800010EDF6E000E336E000E346E120081B3F7
:1001080012007FC033F080C034F07FC0D9FF80C0B8
:10011800DAFFDF50396E20EE01F07F51D926805189
:10012800DA22DECF35F0DDCF36F0050E7F27000E60
:100138008023940E7F1908E1000E8019D8A404D0FA
:100148008F0E7F6F000E806F81917D517F1904E1C2
:100158007E518019D8B48183C580020E846F120045
:10016800C582020E846F1200C5AC05D0832B040E25
:10017800E5EC05F01200D8904930056E4830046E61
:100188000450C96E48A004D00B0E0001846F120001
:10019800030E0001846F1200C5AC05D0832B040E3A
:1001A800E5EC05F01200C58248C004F049C005F02E
:1001B80005C004F0056A060E0416000E0516F00EBA
:1001C8000410486E0550496E4880010E376E020EC5
:1001D800846F12003704D8B41AD035C0D9FF36C09E
:1001E800DAFFDECF48F0DDCF49F020EE03F03550DE
:1001F800D9263650DA22DECF31F0DDCF32F020EECC
:1002080002F03550D9263650DA22DF50386E48C011
:10021800C9FF48A003D0050E846F1200030E846F37
:100228001200C5AC06D0832BC59C050EE5EC05F085
:10023800120038063828D8A40FD0050E3526000E2F
:100248003622392E04D0000EE5EC05F01200C582E6
:10025800020E0001846F120031C0D9FF32C0DAFFEC
:10026800DF50C96E314A322A1200C5AC06D0832B42
:10027800040EE5EC05F0C59C1200C586080E846FD7
:100288001200080E846FC586120031C0D9FF32C033
:10029800DAFFC9CFDFFF314A322A010E385ED8B4FF
:1002A80004D0C59A060E846F03D0C58A4EEC06F0BA
:1002B800C5881200000EE5EC05F012000001832B42
:1002C800060EE5EC05F0120000018451000AD8B4CE
:1002D80016D7010AD8B444D7030AD8B47BD7010A81
:1002E800D8B49FD7070AD8B4E5D7010AD8B4BDD780
:1002F800030AD8B4C6D7010AD8B4DCD70F0AD8B4D1
:10030800C4D7020AD8B430D7010AD8B445D7D6D74B
:1003180017C014F018C015F0ABEC02F0DCD020EEDA
:1003280006F01750D9261850DA22DF50D8A402D088
:100338008994120020EE06F01750D9261850DA22B8
:10034800DE04D8A412008984120020EE06F01750AB
:10035800D9261850DA22DF50D8A402D08996120084
:1003680020EE06F01750D9261850DA22DE04D8A459
:1003780012008986120020EE06F01750D926185070
:10038800DA22DF50D8A402D08B90120020EE06F0BB
:100398001750D9261850DA22DE04D8A412008B8010
:1003A800120020EE06F01750D9261850DA22DF5036
:1003B800D8A402D08B92120020EE06F01750D9264E
:1003C8001850DA22DE04D8A412008B82120020EE24
:1003D80006F01750D9261850DA22DF50D8A402D0D8
:1003E8008B94120020EE06F01750D9261850DA2206
:1003F800DE04D8A412008B84120020EE06F01750F9
:10040800D9261850DA22DF50D8A402D08A9A1200CE
:1004180020EE06F01750D9261850DA22DE04D8A4A8
:1004280012008A8A120020EE06F01750D9261850BA
:10043800DA22DF50D8A402D08A98120020EE06F003
:100448001750D9261850DA22DE04D8A412008A8858
:10045800120020EE06F01750D9261850DA22DF5085
:10046800D8A402D08A96120020EE06F01750D9269A
:100478001850DA22DE04D8A412008A86120020EE70
:1004880006F01750D9261850DA22DF50D8A402D027
:100498008A94120020EE06F01750D9261850DA2256
:1004A800DE04D8A412008A84120020EE06F0175049
:1004B800D9261850DA22DF50D8A402D08B9A12001D
:1004C80020EE06F01750D9261850DA22DE04D8A4F8
:1004D80012008B8A120020EE01F01750D92618500E
:1004E800DA22DECF19F0DECF1AF0DECF1BF0DECF36
:1004F8001CF01C50000AD8A4120024D01A50000A7C
:10050800D8A412001950010AD8B409D7030AD8B4DC
:100518001CD7010AD8B42FD7070AD8B442D7010A82
:10052800D8B455D7030AD8B468D7010AD8B47BD74A
:100538000F0AD8B48ED7010AD8B4A1D7030AD8A411
:100548001200B3D71B50000AD8A41200D7D7000E48
:10055800166E60AE83D062A61ED014C0D9FF15C037
:10056800DAFF020EDF6E64CF01F061CF02F062CFD6
:1005780003F06350BDEC03F020EE01F01450D926CF
:100588001550DA2201C0DEFF02C0DEFF03C0DEFF25
:1005980004C0DEFF19D014C0D9FF15C0DAFF010E60
:1005A800DF6E62CF01F0615008EC05F020EE01F03B
:1005B8001450D9261550DA2201C0DEFF02C0DEFF32
:1005C80003C0DEFF04C0DEFF20EE05F01450D9267C
:1005D8001550DA2265CFDFFF20EE06F01450D92639
:1005E8001550DA2266CFDFFF20EE07F01450D92627
:1005F8001550DA2267CFDFFF20EE08F01450D92615
:100608001550DA2268CFDFFF20EE09F01450D92602
:100618001550DA2269CFDFFF20EE0AF01450D926F0
:100628001550DA226ACFDFFF20EE0BF01450D926DE
:100638001550DA226BCFDFFF20EE0CF01450D926CC
:100648001550DA226CCFDFFF20EE0DF01450D926BA
:100658001550DA226DCFDFFF609E87D00F0130AFD3
:1006680086D032A71ED014C0D9FF15C0DAFF020EFB
:10067800DF6E34CF01F031CF02F032CF03F03351C7
:10068800BDEC03F020EE01F01450D9261550DA2203
:1006980001C0DEFF02C0DEFF03C0DEFF04C0DEFFD4
:1006A8001AD014C0D9FF15C0DAFF010EDF6E32CFA1
:1006B80001F00F01315108EC05F020EE01F0145063
:1006C800D9261550DA2201C0DEFF02C0DEFF03C0C2
:1006D800DEFF04C0DEFF20EE05F01450D9261550C9
:1006E800DA2235CFDFFF20EE06F01450D926155058
:1006F800DA2236CFDFFF20EE07F01450D926155046
:10070800DA2237CFDFFF20EE08F01450D926155033
:10071800DA2238CFDFFF20EE09F01450D926155021
:10072800DA2239CFDFFF20EE0AF01450D92615500F
:10073800DA223ACFDFFF20EE0BF01450D9261550FD
:10074800DA223BCFDFFF20EE0CF01450D9261550EB
:10075800DA223CCFDFFF20EE0DF01450D9261550D9
:10076800DA223DCFDFFF0F01309F010E166E779220
:100778001200096E000E0A6E000E0B6E000E0C6E53
:10078800000E0D6E000E106E000E116E000E126E31
:10079800000E136E0350030B0E6E0338E842070B6E
:1007A8000F6E0250056E066AD89005360636D89048
:1007B80005360636D8900536063605C010F006C050
:1007C80011F0000E11BEFF0E126E136E0F501024A2
:1007D800106E000E1120116E000E1220126E000E07
:1007E8001320136E10C005F011C006F012C007F0F8
:1007F80013C008F0020ED8900536063607360836BC
:10080800E82EF9D705C010F006C011F007C012F0A5
:1008180008C013F00E501024106E000E1120116E37
:10082800000E1220126E000E1320136E10C006F078
:1008380011C007F012C008F0056A05C010F006C024
:1008480011F007C012F008C013F009501024106E00
:10085800000E1120116E000E1220126E000E1320D1
:10086800136E10C006F011C007F012C008F0056A38
:1008780005C010F006C011F007C012F008C013F050
:1008880001501024106E000E1120116E000E12205F
:10089800126E000E1320136E10C00AF011C00BF078
:1008A80012C00CF013C00DF00AC001F00BC002F02A
:1008B8000CC003F00DC004F01200800E6F6E6E5075
:1008C800E00B800AD8A4FBD7000E726E000E0E0152
:1008D800FA6F000EFB6F000EF86F000EF96FFE69DD
:1008E800FF69FC69FD69000EE26F000EE36F880E78
:1008F800E06F800EE16F000EE66F000EE76FCC0E22
:10090800E46FC00EE56F000EEA6F000EEB6F000E8D
:10091800E86F000EE96F000EEE6F000EEF6F000E2D
:10092800EC6F000EED6F000EF26F000EF36F000E0D
:10093800F06F000EF16F000EF66F000EF76F000EED
:10094800F46F000EF56F000E436F980E446F010EA2
:10095800456F000E6F6E6ECF60F0E00E00016017FD
:10096800D8B41200F8D70001656F000181B139D001
:1009780062C0D9FF63C0DAFF020EDF6E20EE01F01D
:100988007D51D9267E51DA2260C0DEFF61C0DDFFCD
:100998007DC0D9FF7EC0DAFF65C0DFFF20EE03F01F
:1009A8007D51D9267E51DA2262C0DEFF63C0DDFFA9
:1009B800050E7D27000E7E23940E7D1908E1000E9A
:1009C8007E19D8A404D08F0E7D6F000E7E6F8193A0
:1009D8007D517F190CE17E518019D8A408D08181FE
:1009E80006D062C0D9FF63C0DAFF010EDF6E62C0B5
:1009F800D9FF63C0DAFF020EDE18D8A412008451B2
:100A0800D8A4FDD79E861200076E000E086E000E51
:100A1800096E000E0A6E000E0B6E0750056E066A10
:100A2800D89005360636D89005360636D89005365D
:100A3800063605C00CF006C00DF0000E0DBEFF0E08
:100A48000E6E0F6E01C005F0050E066ED8900532C9
:100A5800062EFCD705500C240C6E000E0D200D6ED2
:100A6800000E0E200E6E000E0F200F6E0CC008F048
:100A78000DC009F00EC00AF00FC00BF008C001F05D
:100A880009C002F00AC003F00BC004F0120076801F
:100A980076825CEC06F0F28EF28C8B82000E0001FE
:100AA8007C6F020E00017B6F040E7A6FBA0EE82E7F
:100AB800FED77A2FFCD77B2FFAD700F0000E000163
:100AC800706F7C51C3EC05F0020E00017B6F040EC1
:100AD8007A6FBA0EE82EFED77A2FFCD77B2FFAD77B
:100AE80000F000017C2B8B82DCD7000181B11DD086
:100AF8008A0E606F000E616F69C062F06AC063F0B1
:100B08006BC064F06CC065F06DC066F0A0EC05F0D9
:100B18008A0E0001606F000E616F6EC062F06FC0D8
:100B280063F0010EB7EC04F012006EC0D9FF6FC07D
:100B3800DAFF010EDF6E120065C067F066C068F06C
:100B4800D89000016737683760C0D9FF61C0DAFF05
:100B580067C0DEFF68C0DDFF20EE02F06051D926D5
:100B68006151DA2264C0DFFF20EE03F06051D9261C
:100B78006151DA2262C0DEFF63C0DDFF12000001AE
:100B8800786F020E0001796F78C073F0000E726FF3
:100B9800000E716F730E696F000E6A6F010E6B6F36
:100BA800000E6D6F080E6C6F790E6E6F000E6F6F12
:100BB80079EC05F0020E00017919D8B4FBD78B92B5
:100BC8001200036EC58420EE03F03350D92634504A
:100BD800DA22DE50DE10D8B410D020EE03F0335005
:100BE800D9263450DA22DECF01F0DDCF02F001C081
:100BF800D9FF02C0DAFF03C0DFFF000E0001846FD7
:100C08001200F40EF66E0C0EF76E000EF86E090068
:100C1800F5CF4AF00900F5CF4BF000EE7DF0170E46
:100C2800EE6AE806FDE100EE2FF01B0EEE6AE8061C
:100C3800FDE14C904C92000EF86E00014BEF05F070
:100C48008F0E00017F6F000E806F8F0E7D6F000E7C
:100C58007E6F81838191000E836F000EC76E280E10
:100C6800C66E030EC86E9E969D861200000E896E93
:100C7800000E8A6E000E8B6EE30E926EC30E936E9C
:100C8800980E946E110E0F015D6F000E5C6FC30E0F
:100C98005B6F1200050E3526000E3622392E04D061
:100CA800040E0001846F1200010E0001846F12000F
:100CB80078EC06F03AEC06F067EC06F024EC06F067
:100CC80061EC04F01200600ED36E000ED26E000EBE
:100CD8009B6E000E9A6E12003A0E176E000E186E7A
:100CE8008CEC01F077901200D09E120000081200E0
:020000040020DA
:08000000FFFFFFFFFFFFFFFF00
:020000040030CA
:0E0000001508611CFF8091FF0FC00FE00F403C
:00000001FF
